:03000000020A5C95
:0C0A5C00787FE4F6D8FD758118020A3B93
:0908D100120800D2817F057E00AF
:1008DA00E4FDFCC3ED9FEE6480F8EC64809850154B
:1008EA00E4FBFA0BBB00010AEB64644A70F50DBD28
:0508FA0000010C80DE8E
:0108FF0022D6
:10080000EF30E004D2008002C200EF30E104D200F9
:100810008002C200EF30E204D2008002C200EF305A
:10082000E304D2008002C200EF30E404D2A48002CC
:10083000C2A4EF30E504D2A58002C2A5EF30E604E1
:10084000D2A68002C2A6EF30E703D2A722C2A72217
:070A4D007E001208DA7F3081
:080A5400C2801208D1C2812208
:050A8E007F01020A5483
:1009D8008F18A905EF3395E0FEEF64014E7005E925
:1009E80024808010AF18EF3395E0FEEF64024E705C
:0909F80007E924C0FF120A542291
:1009AE00E4FF120800C2807FC8120A4D7F32120A7D
:1009BE004D7F6E120A4D7F38120A547F0C120A5464
:0A09CE007F01120A547F06020A544A
:080A8600D2801208D1C28122C6
:06092D008B0E8A0F8910F9
:10093300E4F511F512AB0EAA0FA9108512828511E9
:1009430083120900FF600D120A860512E51270E595
:04095300051180E129
:01095700227D
:050A93007F1C020A5463
:050A98007F18020A5462
:100A0100EF30E004D2A48002C2A4EF30E104D2A509
:100A11008002C2A5EF30E204D2A68002C2A6EF3066
:080A2100E303D2A722C2A722C1
:070A29007E001208DA7F03D2
:0B0A3000C280120A011208D4C2812209
:0A0A6800E4FF120A307F01020A3099
:040850008F0AA9055D
:10085400EF3395E0FEEF64014E700FE92480FFF55D
:100864000B7804A2E713D8FB801AAF0AEF3395E0A4
:10087400FEEF64024E701EE924C0FFF50B7804A25B
:10088400E713D8FBF50CEF540FF50DAF0C120A303B
:05089400AF0D120A3057
:01089900223C
:10089A00E4FF120A017FC8120A297F32120A297F4D
:1008AA006E120A297F02120A307F02120A307F086A
:1008BA00120A30E4FF120A307F0C120A30E4FF12E7
:0708CA000A307F06020A302C
:02095800AE07E8
:10095A00EE540FF9EE54F0FFD2807804A2E713D8D0
:10096A00FBFF120A011208D4C281AF01120A01D296
:08097A00817F051208DAC28139
:010982002252
:060983008B138A14891594
:10098900E4F516F517AB13AA14A915851782851670
:1009990083120900FF600D1209580517E51770E564
:0409A900051680E1CE
:0109AD002227
:0A0A72007F01120A307F0C020A30E7
:0A0A7C007F01120A307F08020A30E1
:100A3B0012089A7D017F01120850120A687F530237
:020A4B00095848
:10090000BB010CE58229F582E5833AF583E02250AC
:1009100006E92582F8E622BBFE06E92582F8E222F6
:0D092000E58229F582E5833AF583E4932210
:00000001FF
